:020000040000fa
:080000000002040000000000f2
:020000040000fa
:100008009a0200001a0300002c03000022030000db
:10001800340300009a0200009a0200009a020000cd
:100028009a0200009a0200009a0200009a02000058
:100038009a0200009a0200009a0200009a02000048
:100048009a0200009a0200009a0200009a02000038
:100058009a0200009a0200009a0200009a02000028
:100068009a0200009a0200009a0200009a02000018
:100078009a0200009a0200009a0200009a02000008
:100088009a0200009a0200009a0200009a020000f8
:100098009a0200009a0200009a0200009a020000e8
:1000a8009a0200009a0200009a0200009a020000d8
:1000b8009a0200009a0200009a0200009a020000c8
:1000c8009a0200009a0200009a0200009a020000b8
:1000d8009a0200009a0200009a0200009a020000a8
:1000e8009a0200009a0200009a0200009a02000098
:1000f8009a0200009a0200009a0200009a02000088
:100108009a0200009a0200009a0200009a02000077
:100118009a0200009a0200009a0200009a02000067
:100128009a0200009a0200009a0200009a02000057
:100138009a0200009a0200009a0200009a02000047
:100148009a0200009a0200009a0200009a02000037
:100158009a0200009a0200009a0200009a02000027
:100168009a0200009a0200009a0200009a02000017
:100178009a0200009a0200009a0200009a02000007
:100188009a0200009a0200009a0200009a020000f7
:100198009a0200009a0200009a0200009a020000e7
:1001a8009a0200009a0200009a0200009a020000d7
:1001b8009a0200009a0200009a0200009a020000c7
:1001c8009a0200009a0200009a0200009a020000b7
:1001d8009a0200009a0200009a0200009a020000a7
:1001e8009a0200009a0200009a0200009a02000097
:0801f8009a0200009a020000c7
:020000040000fa
:100208009a0200001a0300002c03000022030000d9
:10021800340300009a0200009a0200009a020000cb
:100228009a0200009a0200009a0200009a02000056
:100238009a0200009a0200009a0200009a02000046
:100248009a0200009a0200009a0200009a02000036
:100258009a0200009a0200009a0200009a02000026
:100268009a0200009a0200009a0200009a02000016
:100278009a0200009a0200009a0200009a02000006
:100288009a0200009a0200009a0200009a020000f6
:100298009a0200009a0200009a0200009a020000e6
:1002a8009a0200009a0200009a0200009a020000d6
:1002b8009a0200009a0200009a0200009a020000c6
:1002c8009a0200009a0200009a0200009a020000b6
:1002d8009a0200009a0200009a0200009a020000a6
:1002e8009a0200009a0200009a0200009a02000096
:1002f8009a0200009a0200009a0200009a02000086
:100308009a0200009a0200009a0200009a02000075
:100318009a0200009a0200009a0200009a02000065
:100328009a0200009a0200009a0200009a02000055
:100338009a0200009a0200009a0200009a02000045
:100348009a0200009a0200009a0200009a02000035
:100358009a0200009a0200009a0200009a02000025
:100368009a0200009a0200009a0200009a02000015
:100378009a0200009a0200009a0200009a02000005
:100388009a0200009a0200009a0200009a020000f5
:100398009a0200009a0200009a0200009a020000e5
:1003a8009a0200009a0200009a0200009a020000d5
:1003b8009a0200009a0200009a0200009a020000c5
:1003c8009a0200009a0200009a0200009a020000b5
:1003d8009a0200009a0200009a0200009a020000a5
:1003e8009a0200009a0200009a0200009a02000095
:0803f8009a0200009a020000c5
:020000040000fa
:100400002f8220000e7f22000e01880000000000d5
:10041000000020000000e000020032000001200087
:10042000200288000c000700003820000100200096
:1004300011000700000020000000e0000200320070
:100440000000020000000000640302000000000041
:100450000040da000000fe004440a9000000200037
:100460000000e0000300320000002000a00188002e
:100470004440a80000000600910188008000780038
:100480000000eb0015003700e280400032a0b4000d
:100490009101ba00e280400032a0b4009102ba009b
:1004a000e280400032a0b4000002eb00472bde00e7
:1004b000f507b200602ce10004003a000059eb009f
:1004c0008301e900fdff3e00040037006128e100e0
:1004d000010032000082eb00040007001101ba00a5
:1004e0000200e000e8ff3a00000006003159ba00bf
:1004f0008301e9000c0032002159ba008301e900b0
:10050000080032000400e00003003a00e2804000ee
:1005100032a0b400f5ff370011d9ba008301e90019
:10052000faff3a008100e800e180400032a0b40008
:0c053000000006000040da000000fe00a1
:020000040000fa
:10053c000000fa000002eb00241688000002eb0019
:10054c00541688000002eb00841688000002eb00b1
:10055c00b41688000002eb00e41688000002eb00e1
:10056c00141788000002eb0044178800f46f2c006d
:10057c00041688000082eb0034168800e4012f007a
:10058c00641688000082eb0094168800f43f20006b
:10059c00c4168800f41f2300f4168800f43c2f00c6
:1005ac00241788000002eb00440388000002eb00d3
:1005bc00540388000002eb00043688000002eb00b4
:1005cc00343688000002eb00643688000002eb0031
:1005dc00943688000002eb00c43688000002eb0061
:1005ec00f43688000002eb0024378800040c20004d
:1005fc00641988000080fa0000000600000f7800e3
:10060c001e02780004418800ffff37000000fa004a
:10061c000480200084077800848120000401880075
:10062c000080fa00000006003600f8008020a900c7
:10063c000000eb00f1ff07003600f800f3ff0700a5
:10064c008040a90010002000ecff07003600f800e5
:10065c008060a90020002000e8ff07003600f800a9
:10066c008080a90030002000e4ff07000000fa00a1
:10067c00afff070027000700020007000080fa0008
:10068c00000006000000fa000003eb0064042000e8
:10069c007505200027742000844b7800854b78006a
:1006ac00864b780004002300243a88000002eb00fb
:1006bc00443a88000080fa00000006000000fa00ae
:1006cc00eaff0700041680007f026200041688000f
:1006dc0025168000040820000502720024168800ec
:1006ec00251680000408200004826a002416880065
:0406fc00fbff3700c9
:020000040000fa
:10070000200800000200000002000000ffff0000bf
:1007100000080000200000000000000000000000b1
:020000040000fa
:0c0720000000fa000080fa000000060053
:020000040000fa
:020000040002f8
:04aff800bff900009d
:020000040000fa
:020000040002f8
:04affc007f3f000093
:00000001FF
